:1000000000000320D1010000F9220000B12200000D
:10001000B1220000B1220000B1220000B122000094
:10002000B1220000B1220000B1220000F92200003C
:10003000F9220000B1220000694000006D4000007C
:10004000F9220000F9220000F9220000F922000044
:10005000F9220000F9220000F9220000F922000034
:10006000F9220000F9220000F9220000F922000024
:10007000F9220000F9220000F9220000F922000014
:10008000F9220000F9220000F9220000F922000004
:10009000F9220000F9220000F9220000F9220000F4
:1000A0008D1F0000991F0000F9220000F9220000B6
:1000B000F9220000F9220000F9220000E92D0000D9
:1000C000F9220000F9220000F9220000F9220000C4
:1000D000F9220000F9220000F9220000F9220000B4
:1000E000F9220000F9220000F9220000F9220000A4
:1000F000F9220000F9220000F9220000F922000094
:10010000F9220000F9220000F9220000F922000083
:10011000F9220000A9300000F9220000F9220000B5
:10012000F9220000F9220000F9220000F922000063
:10013000F9220000F9220000F9220000F922000053
:10014000F9220000F9220000F9220000F922000043
:10015000F9220000F9220000F9220000F922000033
:10016000F9220000F9220000A51F0000F92200007A
:10017000F9220000F9220000F9220000F922000013
:10018000F9220000F9220000F9220000F922000003
:10019000F9220000F9220000F9220000F9220000F3
:1001A000F9220000F9220000F9220000F9220000E3
:1001B000F9220000F9220000F9220000F9220000D3
:1001C000F9220000F9220000F9220000F9220000C3
:1001D0005C4B4CF2205210B51A804DF628121A8052
:1001E00000BF00BF02F08CF8574B4FF030621A602E
:1001F000564A9A60564ADA60564B4FF470021A60BB
:10020000554B564A1A60564B1A78110703D51A787F
:1002100042F008021A70534B5349AA221A70534AEB
:10022000534B8B4204D252F8040F43F8040BF8E707
:10023000504B514900228B4202D243F8042BFAE77B
:100240004E494F4A002352F8230041F8230001335E
:10025000742BF8D14B4B4C4A802103F8011B93427D
:10026000FBD14A4B454A1A60494B8A221A70A3F5C2
:10027000805324225A70A0221A709A799207FCD5D2
:100280009A79D406FCD4434A937903F00C03082BE3
:10029000FAD1414B60221A7002331A78802AFCD1BD
:1002A0003C4B01221A715D225A719A799006FCD555
:1002B0009979384A4906FBD5384B394919600021EC
:1002C000596020231370937903F00C030C2BFAD19F
:1002D000344B354A1A60354A354C136813F4807331
:1002E00003D123604FF4A8531360324B324A1A6093
:1002F00000225A60072243F8042C304AC3F80C2D20
:1003000062B602F03FF92368DA0705D52C4802F0FF
:10031000C9F82C4B2C4A1A602C4B1B785B0609D56C
:10032000284C294B22689A4204D1254802F0BAF899
:100330000023236004F062FE01F0E8FF03F01EFFDB
:10034000FEE700BF0E20054030800440823F0400DD
:100350000100002B88ED00E0002008E0030000858C
:1003600002D0074000E00740CC11FF1FEC61000005
:100370003007FF1FCC11FF1FB014FF1F0002FF1F2B
:100380000000000000E400E064E400E008ED00E0AC
:10039000005006400040064001E007404480044011
:1003A0000000060204800440C010070010D0034083
:1003B00014D0034014E000E01FBF02000000202022
:1003C00062094E601CE00340A5C3945A00F0074048
:1003D000FFFFFFFFFFFFFFFFFFFFFFFFFFFFFFFF2D
:1003E000FFFFFFFFFFFFFFFFFFFFFFFFFFFFFFFF1D
:1003F000FFFFFFFFFFFFFFFFFFFFFFFFFFFFFFFF0D
:10040000FFFFFFFFFFFFFFFFFFFFFFFFDEF9FFFF23
:1004100010B5054C237833B9044B13B10448AFF33E
:1004200000800123237010BDCC11FF1F00000000CD
:10043000F0610000084B10B51BB108490848AFF344
:1004400000800848036803B910BD074B002BFBD0A0
:10045000BDE81040184700BF00000000D011FF1F8A
:10046000F0610000CC11FF1F0000000070B5ADF579
:100470007A7D4FF47A7205460C466846002105F0F5
:10048000A5F81C4B0FCB6E4607C6337074B32846D5
:100490002E196A4610F8013B1D1103F00F03092BBA
:1004A000E9B294BF30333733092DD4BF30313731FF
:1004B000B0425173937302F10202EBD10DF10D03BF
:1004C00003EB44040C4B07CB1B88A381A260206084
:1004D0006160684605F0F4F80146684602F080FB6A
:1004E000064803F053FE0DF57A7D70BD0DF10D0445
:1004F000E8E700BFFC5A00000C5B0000C008FF1FCB
:1005000038B5044608460D4600F09CFC284684EDAC
:10051000000A00F09BFC284684ED010A00F09AFCDA
:10052000284684ED020A00F0D9FC284684ED030A2F
:1005300000F0D8FC284684ED040A00F0D7FC84EDD6
:10054000050A38BD2DE9F041B5EEC00AF1EE10FA0A
:10055000B5EEC00A2DED028BD4BFB1EE408AB0EEED
:10056000408AF1EE10FA0F46F0EE408A05464FF051
:1005700001013ED4244803F011FC3DB36E1E344605
:100580004FF00008B045ACBF00230123002C08DD6C
:1005900000220132D2B203EB8303A2424FEA4303AB
:1005A000F7DB07EE903AF8EE677AB4EEE78AF1EE01
:1005B00010FA0BD508F101080121144803F0EEFBF5
:1005C0005FFA88F39D4204F1FF34DBD8F5EEC08A70
:1005D000F1EE10FA12D418EE900A04F0E5F9BDEC31
:1005E000028B41EC100B39460948BDE8F04103F09D
:1005F0001FBE084803F0D2FB002DBFD1F1EE687A90
:1006000017EE900AE9E700BF6C5C0000F45A0000A6
:10061000D808FF1FF85A000038B5132104463B489C
:100620003B4D03F0BBFB204600F00CFC02210520F3
:10063000FFF788FF0221284603F0B0FB204600F0B8
:1006400005FC02210520FFF77DFF0221284603F06B
:10065000A5FB204600F0FEFB02210520FFF772FFFC
:1006600010212C4803F09AFB204600F037FC0221B1
:100670000520FFF767FF0221284603F08FFB204685
:1006800000F030FC02210520FFF75CFF0221284624
:1006900003F084FB204600F029FC02210520FFF72F
:1006A00051FF0F211C4803F079FB204600F060FB4E
:1006B00002210520FFF746FF0221284603F06EFBCA
:1006C000204600F063FB02210520FFF73BFF0221DB
:1006D000284603F063FB204600F066FB022105205C
:1006E000FFF730FF0E210D4803F058FB204600F0C5
:1006F00001FC02210520FFF725FF0221084803F035
:100700004DFB0848BDE8384003F040BD545B000095
:10071000285B0000685B00007C5B00008C5B0000D5
:10072000505B0000D808FF1F00B52B4887B000F0D1
:1007300003FC50B32849684600F006FB1621274801
:1007400003F02CFB264803F021FD2348FFF764FF4C
:1007500021492448FFF7D4FE1E2001F0C1FE2248A3
:1007600000F0EAFB08BB1221204803F017FB1C48ED
:1007700003F00CFD4FF4FA7001F0B2FE194830217D
:1007800007B05DF804EBFFF771BE1021184803F0C5
:1007900005FB134803F0FAFC4FF4FA7001F0A0FED9
:1007A000114800F0C9FB0028DDD068460E4900F072
:1007B000CBFA16210F4803F0F1FA094803F0E6FCE2
:1007C0000948FFF729FF08490B48FFF799FE1E204B
:1007D00001F086FED2E700BF2812FF1F9C5B0000DD
:1007E000D808FF1F6812FF1FE811FF1FE05B000021
:1007F000B45B0000C85B00008012FF1F08B504480E
:1008000000F064FC0348BDE8084000F05FBC00BF96
:100810002812FF1FE811FF1F38B53A4A3A493B4DED
:100820003B4C1378002BFCD00B78DB07F9D52B68F9
:1008300020681B1A0E2BF4D93648374D4FF4E1319E
:1008400003F02CFC354801F05BFC354B334A324851
:10085000022100F041FC2721324803F09FFA0821D1
:100860002D4800F05BFB044604F02AFF01462046B9
:1008700003F094FA2C4803F089FC2B7F2B480F21BE
:100880004BB103F08BFA284803F080FC4FF4FA7068
:1008900001F026FED9E714212548264D03F07EFA03
:1008A000214803F073FC1E4B1C4A2248062100F02D
:1008B00013FC2921204803F071FA08211D4800F09B
:1008C0002DFB044604F0FCFE0146204603F066FAC8
:1008D000154803F05BFC2B7F14480F214BB103F04C
:1008E0005DFA114803F052FC4FF4FA7001F0F8FD84
:1008F000D9E71421114803F051FA0B48BDE83840FC
:1009000003F044BC1814FF1F3014FF1F9C12FF1F7C
:10091000A814FF1FC008FF1F2812FF1F7408FF1F25
:10092000C0CF6A00F45B0000D808FF1F1C5C000009
:100930002C5C0000E811FF1F445C0000705C0000AC
:1009400090F8383090F839209A4205D95A1C03445F
:1009500080F83820187E70474FF0FF30704700BF96
:10096000002B00F0D4802DE9F0471E6A002E00F025
:10097000AB80F47A93F82870D3F8249004B372B65D
:10098000F37ADC0706D56A4CF36825682B40F361DF
:100990002360F37A9D0706D5664C336925682B40A2
:1009A00033622360F37A5C0706D5634C736925686C
:1009B0002B4073622360F37A1B0700F1B18062B6AB
:1009C0003468E368994508D05C4B23605C4DC4F8FB
:1009D0000C9049F08043236125604FF000450023CF
:1009E000E5626363E36A002BFCDAF37AA46BB3B1CC
:1009F000DD0703D5534BF4691C60F37A9C0703D5DC
:100A0000514B346A1C60F37A5D0703D54F4B746A0F
:100A10001C60F37A1C0702D54D4BB46A1C600D466E
:100A2000824600213846904601F04EFDF37AFBB134
:100A300072B6F37AD80706D53D4AF36811680B40C1
:100A4000F3611360F37A990706D53A4A336911685E
:100A50000B4033621360F37A5A0706D5364A73693E
:100A600011680B4073621360F37A1C0751D462B6AD
:100A70003468E368994508D0304A2260304BC4F8A6
:100A80000C9049F08042226123604AF080004FF0D0
:100A90000043E3626063E36A002BFCDAA36BB8F106
:100AA000000F14D0294605EB080200204FF0004546
:100AB000E5626063E36A002BFCDAA36B01F8013B9B
:100AC0008A4204D03468F3E70320BDE8F087F37A64
:100AD000B3B1D80703D51B4BF2691A60F37A9907B3
:100AE00003D5194B326A1A60F37A5A0703D5174BAC
:100AF000726A1A60F37A1B0702D5154BB26A1A6044
:100B00003846012101F0E0FC0020BDE8F087032019
:100B10007047104AB36911680B40B3621360A6E7CF
:100B20000C4CB36925682B40B362236047E700BFD4
:100B300080E100E084E100E088E100E001403F0066
:100B400000003F8000E100E004E100E008E100E097
:100B50000CE100E08CE100E0002B00F0D1802DE9F9
:100B6000F0471E6A002E00F0C880F47A93F82870CF
:100B7000D3F8249004B372B6F37ADC0706D5684C38
:100B8000F36825682B40F3612360F37A9D0706D54F
:100B9000644C336925682B4033622360F37A5C0729
:100BA00006D5614C736925682B4073622360F37A24
:100BB0001B0700F1AE8062B63468E368994508D03F
:100BC0005A4B23605A4DC4F80C9049F0804323617E
:100BD00025604FF000450023E5626363E36A002B64
:100BE000FCDAF37AA46BB3B1DD0703D5514BF4699A
:100BF0001C60F37A9C0703D54F4B346A1C60F37A70
:100C00005D0703D54D4B746A1C60F37A1C0702D54F
:100C10004B4BB46A1C600D46824600213846904614
:100C200001F052FCF37AFBB172B6F37AD80706D51D
:100C30003B4AF36811680B40F3611360F37A99073C
:100C400006D5384A336911680B4033621360F37A72
:100C50005A0706D5344A736911680B4073621360F2
:100C6000F37A1C074ED462B63468E368994508D01D
:100C70002E4A22602E4BC4F80C9049F0804222612B
:100C800023600AF07F004FF00043E3626063E36A91
:100C9000002BFCDAA36BB8F1000F0ED0294605EB50
:100CA00008024FF0004011F8013BE0626363E36A21
:100CB000002BFCDA8A42A36BF5D1F37AB3B1D807E3
:100CC00003D51C4BF2691A60F37A990703D51A4BC6
:100CD000326A1A60F37A5A0703D5184B726A1A609F
:100CE000F37A1B0702D5164BB26A1A603846012107
:100CF00001F0EAFB0020BDE8F0870320BDE8F087A3
:100D0000032070470F4AB36911680B40B362136048
:100D1000A9E70C4CB36925682B40B36223604AE70E
:100D200080E100E084E100E088E100E001403F0074
:100D300000003F8000E100E004E100E008E100E0A5
:100D40000CE100E08CE100E070B50E460C1D05469C
:100D50002146304600F05EFF30770FCC2860696096
:100D600003CCAA602861EB606961284670BD00BFB2
:100D7000B0F91030DFED047A00EE103AB8EEC00A98
:100D800020EE270A704700BF9A99193EB0F9123039
:100D9000DFED047A00EE103AB8EEC00A20EE270A22
:100DA000704700BF9A99193EB0F91430DFED047A0C
:100DB00000EE103AB8EEC00A20EE270A704700BFD6
:100DC0009A99193E037E82B003F003030191032B2D
:100DD0002BD8DFE803F020160C02DDED017A9FED41
:100DE000147AF8EEE77A87EE870A02B07047DDEDF5
:100DF000017AB8EEE77ADFED0F7A87EE270A02B0C4
:100E00007047DDED017AB8EEE77ADFED0B7A87EE19
:100E1000270A02B07047DDED017AB8EEE77ADFED20
:100E2000077A87EE270A02B070479FED050ADCE7D4
:100E30006F1203406F1283406F1203416F128341A0
:100E400000000000B0F90410FFF7BCBFB0F90610B5
:100E5000FFF7B8BFB0F90810FFF7B4BF037E82B048
:100E6000C3F381030191032B2BD8DFE803F0201695
:100E70000C02DDED017A9FED147AF8EEE77A87EE49
:100E8000870A02B07047DDED017AB8EEE77ADFED50
:100E90000F7A87EE270A02B07047DDED017AB8EECF
:100EA000E77ADFED0B7A87EE270A02B07047DDEDB7
:100EB000017AB8EEE77ADFED077A87EE270A02B00B
:100EC00070479FED050ADCE7333383413333034238
:100ED000000083420000034300000000B0F90A1044
:100EE000FFF7BCBFB0F90C10FFF7B8BFB0F90E1098
:100EF000FFF7B4BFB0F91630DFED076A07EE903A9E
:100F0000F8EEE77AB3EE057A77EEC77A87EEA60AAF
:100F100030EE070A704700BF5CEFA643082908BF00
:100F2000017F07299ABF024B53F8210001487047FF
:100F3000885C0000A85C000010B5044600F040FB8F
:100F40000346B0FA80F02377400910BD30B583B076
:100F50000DF1070300220C21044600F05DFA9DF814
:100F6000075020770DF10703204601220C2100F0E5
:100F700053FA482D9DF8073003D00420207703B0A2
:100F800030BD092BF9D100202077F8E730B50021DA
:100F900089B0054600F0FEFC01212877284600F0C4
:100FA00027FD052428772846FFF7D0FF58B12846AB
:100FB00000F080FD631E13F0FF042877F3D10420B6
:100FC000287709B030BD08AB082203F8012D0C21A9
:100FD0003122284600F014FA28770028F1D10123A5
:100FE00009228DE80C0005900490039001460293BD
:100FF0000C221023284600F089FD287709B030BD67
:1010000030B583B0054600F0C9FA0446287710B120
:10101000204603B030BD284600F008FA0446287781
:101020000028F5D1322001F05BFA2146284600F075
:1010300029FA044628770028EAD10146284600F01C
:1010400057FA044628770028E2D1024603212846B1
:1010500000F0DAFA044628770028D9D14FF00002D0
:1010600060F3010260F383020321284600F012FBC3
:10107000044628770028CBD107238DF804308DF85B
:101080000530019A0321284600F084FB04462877A6
:101090000028BDD102460121284600F0F1FB04469C
:1010A00028770028B4D102460221284600F0E8FB48
:1010B000044628770028ABD12846FFF767FF08B918
:1010C0002C7FA5E728770446A2E700BF014B4362C7
:1010D000704700BF03200038F8B5484D0262AB42AC
:1010E000044628BF2B46464F4648002502E0172EEF
:1010F00008D0354637F8022F90FBF2F29A4205F1FC
:101100000106F4D8404B84F8281053F8253043F0FA
:10111000605308466362012101F0DCF9012194F873
:10112000280001F0D1F9236A626AD97A00295CD0DB
:1011300072B6D97ACD0706D53448D96805682940F2
:10114000D9610160D97A880706D5314819690568DF
:10115000294019620160D97A4F0706D52D4859698F
:101160000568294059620160D97A0E073FD462B6FA
:10117000216A1B68D868904207D0274D1D60274818
:10118000DA6042F080451D6118600A684FF0004047
:101190000023D0625363D36A002BFCDACB7A926BC4
:1011A000B3B1DD0703D51E4BCA691A60CB7A980725
:1011B00003D51C4B0A6A1A60CB7A5A0703D51A4B1F
:1011C0004A6A1A60CB7A1B0702D5184B8A6A1A60E2
:1011D0001749184AE46304F134036163A26323608E
:1011E0002046FFF70DFF2077F8BD1946C1E71248EA
:1011F00099690568294099620160B8E7C0CF6A0023
:10120000BE5D000000879303845E000080E100E083
:1012100084E100E088E100E001403F0000003F8001
:1012200000E100E004E100E008E100E00CE100E0A2
:10123000590B0000610900008CE100E02DE9F04F3E
:1012400087B04FF030099DF844A08DF80620BAF120
:10125000000F0CBF00226FF07F02114302688DF86F
:1012600007108DF8129017689DF840409DF848507F
:10127000002F00F09A80064698460DF112019368FF
:101280007F200122B84733681F68002F00F08D804F
:101290009B6801220DF107011320B847002840F098
:1012A000858033688DF813901F68002F7DD09B6870
:1012B00001220DF113017F20B84733681F68002F0A
:1012C00073D09B6801220DF106011420B847002855
:1012D0006CD19DF80C3063F07F0360F3861360F3EC
:1012E000040385F0010565F34513A4B28DF80C30B5
:1012F000002C5BD0013C1FFA84FB0BF1010BC344B3
:101300000746BAF1000F15D133688DF814901C68A8
:10131000002C4AD09B68012205A97F20A047336892
:101320001C68002C41D09B68012241461620A04732
:1013300000283BD133688DF815901C68002C34D000
:101340009B6801220DF115017F20A04733681C68BE
:101350005CB39B68012203A91520A04730BB04465B
:101360000FE09B68A8479DF8103040F2E731C3F3C7
:1013700080128C4288BF42F00102D20704F10104BE
:1013800017D433688DF816701D6835B19B6801223B
:101390000DF116017F20A84733685D68012204A97A
:1013A0001720002DDDD10220DDE7022007B0BDE8C7
:1013B000F08FDB0620D48C421ED8BAF1000F12D079
:1013C00033688DF817901C6834B19B6801220DF1C9
:1013D00017017F20A04733685C685CB19B680122DD
:1013E00041461720A04708F10108C34589D107B03D
:1013F000BDE8F08F0220F6E7012007B0BDE8F08FCE
:1014000030B585B00124002502948DE83000FFF747
:1014100015FF05B030BD00BF10B584B001240294A3
:1014200001940094FFF70AFF04B010BD30B583B0FB
:10143000002203688DF807201D68044635B19B68BB
:1014400001220DF107017F20A84723685D68ADB137
:101450009B6801A901220620A84768B922689DF867
:101460000430146843F080038DF8043034B193687D
:1014700001A901220620A04703B030BD022003B01D
:1014800030BD00BF70B582B0002203688DF8072020
:101490001D6804460E4635B19B6801220DF1070117
:1014A0007F20A84723685D68F5B19B6801A90122E8
:1014B0000620A84770B99DF804306EB966F386130C
:1014C0008DF8043023681C6874B19B6801A901225F
:1014D0000620A04702B070BD43F040038DF80430F1
:1014E00023681C68002CF0D1022002B070BD00BF40
:1014F00070B582B0002203688DF807201D6804468D
:101500000E4635B19B6801220DF107017F20A847E7
:1015100023685D68F5B19B6801A901220620A847F0
:1015200070B99DF804306EB966F345138DF8043038
:1015300023681C6874B19B6801A901220620A0479A
:1015400002B070BD43F020038DF8043023681C689E
:10155000002CF0D1022002B070BD00BFC9B170B53F
:1015600082B0002203688DF807201E680C460546ED
:1015700036B19B6801220DF107017F20B0472B682F
:101580005D6845B19B68214601220020A84702B052
:1015900070BD03207047022002B070BD00B583B05B
:1015A00002A9002301F8013DFFF7D8FF28B99DF8F3
:1015B0000730EA2B14BF0420002003B05DF804FBC1
:1015C00030B583B0002203688DF807201D68C5B1CF
:1015D00004469B6801220DF107017F20A84770B9DE
:1015E00023685C686CB19B68012201A91A20A0479E
:1015F00028B99DF8043013F0010F08BF062003B08E
:1016000030BD022003B030BD11F0130F01D107200F
:101610007047F0B583B0002403688DF807401F6859
:10162000002F34D0164605460C469B6801220DF16A
:1016300007017F20B84740BB2B685F683FB39B68BA
:1016400001A901220520B847F8B9E10705D59DF8A1
:10165000043066F345138DF80430A20705D59DF8D4
:10166000043066F304138DF80430E30605D59DF8C5
:10167000043066F386138DF804302B681C6834B18F
:101680009B6801A901220520A04703B0F0BD0220FC
:1016900003B0F0BD8B0701D1072070472DE9F04161
:1016A000064611F0010082B017460D4631D1AB0756
:1016B00004465ED5202233688DF804201D68002D75
:1016C0005BD09B68012201A97F20A84733685D6831
:1016D0002043C4B2002D54D001229B6810466946B5
:1016E000A84733689DF800101D68C7F381022043A6
:1016F00062F34201C4B28DF80010002D3FD00122E8
:101700009B6810466946A8472043C0B202B0BDE8B6
:10171000F081202233688DF803201C68002C32D021
:101720009B6801220DF103017F20A0473368044626
:10173000D3F80480B8F1000F29D09B68012201A9D9
:101740001420C04733689DF80420D3F80080044378
:1017500067F34202E4B28DF80420B8F1000F14D010
:101760009B68012201A91420C0470443AB07E4B2DF
:10177000A0D4204602B0BDE8F0810220A7E70220F5
:10178000C2E70220AEE70224D2E70220EDE7022002
:10179000D9E700BFF0B585B0ADF804208A0702D1C3
:1017A000072005B0F0BD11F0010406460D462BD010
:1017B000202203688DF80B201C68002C5AD09B68EF
:1017C00001220DF10B017F20A047336804465F68BA
:1017D000002F53D09B68012203A91420B847336817
:1017E0009DF80C209DF804101F68044361F3C502A6
:1017F000E4B28DF80C20002F3ED09B68012203A993
:101800001420B8470443E4B2AB072CD52022336838
:101810008DF80C201D6825B39B68012203A97F2049
:10182000A84733685D682043C4B20DB301229B68AA
:10183000104602A9A84733689DF808209DF80510B6
:101840001D68204361F3C502C4B28DF808206DB154
:1018500001229B68104602A9A8472043C0B205B0E8
:10186000F0BD0220DEE7204605B0F0BD0220F4E71F
:101870000220E1E70224AAE70220C3E70220AFE743
:101880008B0701D1072070472DE9F041054611F083
:10189000010082B016460F4631D1BB0704465FD522
:1018A00020222B688DF804201F68002F66D09B68CB
:1018B000012201A97F20B8472B685F682043C4B28A
:1018C000002F5FD001229B6810466946B8472B68FD
:1018D0009DF800202043C4B2002E45D042F0010202
:1018E0008DF800201D68002D4AD001229B6810460B
:1018F0006946A8472043C0B202B0BDE8F08120226B
:101900002B688DF803201C68002C3DD09B680122B9
:101910000DF103017F20A0472B680446D3F8048013
:10192000B8F1000F34D09B68012201A91420C047F0
:101930002B689DF804200443E4B2D6B142F00102C2
:101940008DF80420D3F80080B8F1000F1ED09B68FA
:10195000012201A91420C0470443BB07E4B29FD46D
:10196000204602B0BDE8F08166F300028DF8002049
:10197000B8E766F300028DF80420E3E702209CE755
:101980000220B7E70220A3E70224C7E70220E3E72B
:101990000220CEE770B582B0002203688DF80720E0
:1019A0001D680DB30E4604469B6801220DF1070128
:1019B0007F20A847C8B923685D68ADB19B6801A9BD
:1019C00001220F20A84780B922689DF804301468CE
:1019D00066F341038DF8043034B1936801A9012204
:1019E0000F20A04702B070BD022002B070BD00BF42
:1019F00070B50E4682B000210446FFF7CBFF0028E9
:101A00004ED1302223688DF806201D68002D49D064
:101A10009B6801220DF106017F20A84700283FD1D5
:101A200023685D68002D3DD001229B686946104601
:101A3000A847002834D19DF80030216803F0E00366
:101A40000D6843F017038DF800305DB301228B68F9
:101A500010466946A84718BB22688DF8070015682C
:101A600005B393680DF1070101227F20A847B8B99B
:101A700023685D68B5B19B6801A901220320A847CE
:101A800070B99DF8043086B966F345138DF80430BB
:101A900023681C6834B19B6801A901220320A04778
:101AA00002B070BD022002B070BD43F020038DF87B
:101AB0000430EDE730B583B0002203688DF80720CD
:101AC0001D6805B304469B6801220DF107017F20C4
:101AD000A847C8B923685D68ADB19B6801A9012218
:101AE0000320A84780B922689DF80430146843F0A9
:101AF00002038DF8043034B1936801A90122032058
:101B0000A04703B030BD022003B030BD2DE9F04F37
:101B10008BB09DF864409DF850B09DF854609DF8DE
:101B200058A09DF85C909DF86080019403296FD8BF
:101B3000DFE801F002645E5805210491042102915E
:101B40000327302401688DF827400D68002D5BD0F5
:101B50000593039204468B6801220DF127017F2033
:101B6000A84700283BD19DF81C30039A62F3060376
:101B70008DF81C3026B1DBB243F080038DF81C30A9
:101B800023681D68002D3FD09B683846012207A9B5
:101B9000A84720BB23689DF814208DF820201D68DD
:101BA000002D31D09B680298012208A9A847B0B93E
:101BB0009DF824302268019914686BF303036AF3DB
:101BC000C71369F3451368F3041361F386138DF8A3
:101BD0002430CCB193680498012209A9A0470BB026
:101BE000BDE8F08F11210491102102910F27A8E781
:101BF0000D2104910C2102910B27A2E709210491E8
:101C00000821029107279CE702200BB0BDE8F08F66
:101C10000320E4E7002900F0BB80F0B58BB0002280
:101C200003688DF80F201D680C460646002D00F055
:101C3000C8809B6801220DF10F017F20A8473368FF
:101C400005465F68002F00F0BA809B68172204A940
:101C50002D20B8479DF813309DF814E09DF81270C0
:101C60009DF815109DF810C09DF8112043EA072734
:101C700041EA0E219DF817309DF816E0678042EA90
:101C80000C2243EA0E2322809DF818E09DF81920CB
:101C90009DF81B70A18042EA0E229DF81AE09DF883
:101CA0001D10E38047EA0E2E9DF81C709DF81F3032
:101CB000228141EA07279DF820109DF82220A4F8F0
:101CC0000AE043EA01219DF821309DF824E0678273
:101CD00043EA02229DF823309DF81E70E28143EA18
:101CE0000E236775A18123829DF82630A375336882
:101CF00020228DF80E201F680543EDB2002F5CD026
:101D00009B6801220DF10E017F20B84733685F68A0
:101D10000543EDB2002F4ED09B68012201A914208B
:101D2000B84733689DF80420217D20278DF80D7079
:101D3000C2F341021F68054362F30101EDB2217550
:101D4000002F36D09B6801220DF10D017F20B8478E
:101D500033685F680543EDB2E7B101229B68104626
:101D600002A9B84732689DF80830217D5668C3F350
:101D70004103284363F38301C5B221751EB3936801
:101D800003A901221520B0472843C0B20BB0F0BD13
:101D9000032070479DF80830227D45F0020502209F
:101DA000C3F34103284363F38302C0B222750BB02F
:101DB000F0BD0220CDE70220B4E70220A7E7022011
:101DC00048E702253DE70220DEE700BF002070471C
:101DD00090F8392090F83800101A704790F8383091
:101DE00090F839209A4286BF1B18187E4FF0FF30BA
:101DF000704700BF704700BF38B50546B0F85E00B9
:101E000090B195F85D301446C3F1210294420CD88C
:101E100005F13B001844224600F0B0F995F85D301A
:101E2000234485F85D30204638BD012014462871D2
:101E3000EEE700BFB0F85E306BB190F85D30202B5C
:101E400007D8C218013380F85D30012082F83B10BA
:101E50007047012303710020704700BF38B5026945
:101E6000D478E4B2E106054624D51023D370630686
:101E70001FD504F0040404F0FF03002C5AD042499B
:101E80006A6E00230B7085F85D30002A66D090479B
:101E900095F85D30002B61D02B69D0229A702B69A8
:101EA00095F83B201A712B69012285F85C200222EB
:101EB000DA7038BD04F0400303F0FF00002BD8D1E6
:101EC0009379DBB203F0600160294ED0937803F080
:101ED000100303F0FF01B3B114F0010437D195F8FA
:101EE0005C3095F85D1099424BD9591C2B4485F80C
:101EF0005C1093F83B3013712B69D0229A702B69D8
:101F00000222DA70D5E785F86010937943F0200358
:101F100093712B6995F839101A791F29D2B2C6D856
:101F2000194800780028C2D06818013185F83910A6
:101F30000276BCE72A6985F83930C02393702B6993
:101F4000114A1979012111700222DA70B1E7C02318
:101F500093702B691A790222DA70AAE70122002312
:101F600085F85D2085F83B3096E703F0DF03937139
:101F7000AB6E23B185F8380095F8390098472A6987
:101F8000A4E71471B8E700BF9812FF1F0148FFF7DC
:101F900065BF00BF9C07FF1F0148FFF75FBF00BF81
:101FA0000808FF1F0148FFF759BF00BF3007FF1F98
:101FB00010B4047F4160022CC26003D05DF8044B72
:101FC00001F0F0BF83685DF8044B1847F0B4464B4E
:101FD000464A986B5C6B01791170454922790A7009
:101FE0001A6B00790870002A46D05968C9688A427D
:101FF0003ED82168CC8B240402F1FF3065D4C0F3B5
:102000000E00C883C88B80B2C882996B0968C88BE0
:10201000000452D4C2F30E00C883C88B002480B2DF
:1020200012F1FF32C88218BF01221C63596B2E487F
:1020300009680D6800F12C04A54236D00068C46818
:1020400014F0804F0C680D6815BF24882478023581
:10205000013544F000440D604463996B254B0979C8
:102060001970214912B14A6B12791A70F0BC70478D
:10207000521A1A630122D9E7D86B196805681E4CF9
:102080000A63CC62CC682D681C4E24F08044032780
:10209000B542CC6083F82D701FD1037F4260022BC4
:1020A000C2601ED0F0BC01F07DBF016890F82C002A
:1020B000CC6840F000404863CFE7CC8BC2F3080007
:1020C00004F47E442043C883A7E7CC8BC0F3080008
:1020D00004F47E442043C88394E72B461146F0BCA9
:1020E00018478368F0BC18477408FF1F1F80004022
:1020F0001C8000401B80004000000FFFB11F00004B
:1021000090E80C00F0B41C6859682568164F174E0B
:1021100029432160164D17491760D660156111607B
:10212000417A154A5C180C3194F82C4053F8215030
:1021300002EBC40149680D60017A5C1803EB810170
:10214000247ECD6902EBC40149680D60817A58187C
:1021500003EB810390F84000596C02EBC002F0BC25
:1021600053681960704700BF01401F00011000381C
:102170000110007800001F80E05E0000844641EA04
:10218000000313F003036DD1403A41D351F8043BEF
:1021900040F8043B51F8043B40F8043B51F8043B41
:1021A00040F8043B51F8043B40F8043B51F8043B31
:1021B00040F8043B51F8043B40F8043B51F8043B21
:1021C00040F8043B51F8043B40F8043B51F8043B11
:1021D00040F8043B51F8043B40F8043B51F8043B01
:1021E00040F8043B51F8043B40F8043B51F8043BF1
:1021F00040F8043B51F8043B40F8043B51F8043BE1
:1022000040F8043B51F8043B40F8043B403ABDD24F
:10221000303211D351F8043B40F8043B51F8043BF1
:1022200040F8043B51F8043B40F8043B51F8043BB0
:1022300040F8043B103AEDD20C3205D351F8043B80
:1022400040F8043B043AF9D2043208D0D2071CBF4C
:1022500011F8013B00F8013B01D30B880380604675
:10226000704700BF082A13D38B078DD010F00303EB
:102270008AD0C3F10403D21ADB071CBF11F8013B5B
:1022800000F8013B80D331F8023B20F8023B7BE7AA
:10229000043AD9D3013A11F8013B00F8013BF9D2D5
:1022A0000B7803704B7843708B788370604670476F
:1022B00008B5104C08E0236859050DD423681A05A9
:1022C0000FD42368DB0411D423685803F3D500F03E
:1022D000EBFE23685905F1D500F086FD23681A0549
:1022E000EFD500F009F82368DB04EDD500F004F821
:1022F000EAE700BF3480044008B5FFF7D9FF00BF0C
:10230000014B10221A80704700200540704700BF23
:10231000094908B50B6830B16A461844A2F5005265
:10232000904202D20860184608BD02F061FE0C23FC
:1023300003604FF0FF3008BDB408FF1FEFF31380B8
:1023400070B9EFF310836BB9EFF305825AB94FF40C
:102350008070EFF311832BB1984228BF1846704765
:102360004FF0FF3070470F2A01D81846F1E7014BB4
:10237000D05CEEE7F0E300E0084A1378802B01D050
:10238000002070470649074B074808600021197074
:102390001378802BFCD00120704700BF03E007407A
:1023A0004480044001E0074000002822094A1378D5
:1023B000012B01D00020704703F1804303F5FC237B
:1023C000602119701378802BFCD1034B034A1A60EB
:1023D0000120704703E007404480044000000602EB
:1023E00010B4114B53F8302092F8804234B10123DD
:1023F00079B182F880305DF8044B704703EBC0037D
:102400005B681A6851B922F002021A605DF8044B49
:10241000704782F800315DF8044B704742F00302C8
:102420001A605DF8044B7047E05E00001C4A02EB46
:10243000C00301295B6811D004291BD052F8300079
:10244000002280F8802229B1022920D0032922D03D
:102450001A6070474FF480721A60704752F830006B
:102460004FF4A27280F880121A601A6822F02002DB
:102470001A60704752F830104FF4A272012081F8B0
:1024800080021A601A6842F020021A60704740F217
:1024900003121A6070474FF481721A60704700BFD0
:1024A000E05E000030B4054B054D064C00221021C3
:1024B0001A602A602060196030BC704714D0034055
:1024C00004D0034000D003403F2801D8FFF788BF65
:1024D000704700BF3F2801D8FFF7A8BF704700BF73
:1024E0002DE9F843054672B6224F234B234A1B6859
:1024F0003C68126862B6520102D5322B88BF0134A3
:10250000B5B3C3F52F3303F21F331D4EDFF86890C8
:10251000DFF868809B084FF47A72A6FB031302FB76
:1025200004F404EB930472B6D9F800103A68D8F8B2
:1025300000E062B6C1F52F3303F21F339B08A6FB00
:1025400003031EF0806FC4EB93034FF47A7002D044
:10255000322988BF013200FB0233B3F57A7F04D3FE
:10256000013D05D004F57A74DDE701F053FFDAE7A9
:10257000BDE8F8839C12FF1F18E000E004ED00E0C6
:10258000176CC116F8B54E4B4E48DFF85CC14E4C87
:102590004E49DFF858E14E4E4E4D4F4F4FF000621E
:1025A0001A604FF080521A604FF000521A604FF0DC
:1025B00080421A604FF000421A6000220260282315
:1025C0004EF6FF70CCF80000CEF8003023600EF518
:1025D000012E0B6033602B6006F500263B6005F58D
:1025E0000025A36207F500278B6204F5012401F59D
:1025F000012106F6E87605F6E87507F57F671031E4
:102600000EF1100E203433602B60CEF800303B60AA
:102610000B602360314CBB618B6109212160A7F500
:10262000002704F58054203F08343A602060BB60E6
:10263000E36047F8041C04F5FD2407F5FE27043782
:1026400004F2FC7422603860A360FB6044F8041C50
:10265000083404F6FC74C7F8FC2F2060A4F5E124CC
:10266000A4F2DC7433602B60C7F8F81F21681C48A3
:1026700041F40071216001681A4C0EF57F4E0EF195
:10268000E80E07F5883706F5803605F5803541F008
:1026900000710160CEF8002047F6FF710822396012
:1026A00033602B60226001F02BFF1920FFF718FF29
:1026B00001F060FA40F21310BDE8F840FFF710BFD8
:1026C00004E100E004800340148003401C800340C8
:1026D000248003402C80034034800340008003406A
:1026E0000480044000900C40088003400C800340AC
:1026F0002DE9F84F214B1B6807460BB101221A70D8
:10270000DFF888901E4D99F80040DFF884801D4E58
:1027100001343F2C8ABF4FF0000A5FFA84FA544616
:10272000AB462B78A34216D1FFF708FE40281FDCEA
:1027300033791B06F5D59BF8003001333F2B86BF5C
:1027400000221346DAB218F80330DBB2F3712A70B4
:102750002B78A342E8D00C490A4BFFB208F804706A
:102760000120BC22087089F800A0DA70BDE8F88F5B
:10277000FF28D6DD01F04EFED3E700BF3013FF1F68
:102780002D13FF1F00A006402C13FF1F3413FF1F43
:10279000A812FF1F324A33491368F0B543F480632F
:1027A00013600A78304F314E314D324C324900239C
:1027B000152A3B7033702B7023700B7045D01B2A89
:1027C0003ED082B32D4B1B78052B34D01A2B41D031
:1027D000012B1BD01F281FD8002002460125284BA3
:1027E000284C1A7028495D7004224FF0020E882789
:1027F0003C26402598729A704FF0004083F813E011
:102800005A751F74DE7025700860F0BD1F4B4FF4C1
:1028100051721F281A60DFD9C0F34432C0F3471544
:1028200000F01F00DBE71A4B40F213321A60134B23
:102830001B78052BCAD1174B4FF451721A60C9E7A8
:10284000154B40F213321A60BCE7144B40F21332BE
:102850001A60B7E7124B4FF451721A60BAE700BF23
:1028600034800440E812FF1FA412FF1FA512FF1FAF
:102870003413FF1F2D13FF1F2C13FF1FB808FF1F5A
:1028800000A006401FE400E000E100E044A0044096
:1028900040A004401CC004403C90044018C00440C8
:1028A00038900440194B19499B7803F0EC0200F072
:1028B00003031343420700F00F0248BF43F0100325
:1028C000042A8B701CD0114B104A5B79C10603F0AF
:1028D000EF0348BF43F0100353719379820603F06E
:1028E000EF030A4A48BF43F010039371C30506D5AE
:1028F00053781178DBB241F02001117053707047AA
:102900008B7943F040038B71DDE700BF00A00640E8
:102910002A4B1B685B0536D510B5294C237823B1AB
:1029200001F078FD2378002BFAD12648264A274B60
:102930004FF0004400210460D1701B78152B23D088
:102940001B2B35D01BB9224B40F203121A60214BCE
:102950001B7803F07F03052B20D01A2B23D0012BEB
:1029600003D11D4B40F203121A601C4A164B1C483F
:102970001C4912681C79DB79002303700B700AB1C3
:102980000123137010BD7047174B40F203121A60F9
:10299000104B1B7803F07F03052BDED1134B40F265
:1029A00003121A60E1E7124B40F203121A60DCE7EF
:1029B000104B40F203121A60C9E700BF3480044094
:1029C0002C13FF1F80E100E000A00640E812FF1F6B
:1029D00040A00440B808FF1F44A00440A012FF1FFD
:1029E000A412FF1FA512FF1F18C004401CC0044002
:1029F000389004403C9004400A4A38B505461378A4
:102A000003F0FF04002BFAD101212846FFF762FDF5
:102A100021462846FFF758FD034A044B52F835205B
:102A20001A6038BD2C13FF1FE05E00003013FF1F3B
:102A300009B140F080001E4A137898421BD010B4B0
:102A40001C4C2468640513D503F07F03052B2AD0A2
:102A50001A2B24D0012B14D0002900F07F0114BFC1
:102A600060234423052915D01A290ED0012903D04B
:102A700010705DF8044B70470F4943F440730B60CE
:102A8000F6E70D4B00241C60E6E70C4943F4407365
:102A90000B60EDE70A4943F440730B60E8E7074B2E
:102AA00000241C60D8E7064B00241C60D4E700BF5C
:102AB000B808FF1F3480044044A00440389004400C
:102AC0001CC00440174A137883420ED01649096887
:102AD000490509D5152B20D01B2B1AD05BB1152821
:102AE0000DD01B2810D008B1107070470F4B40F26A
:102AF00013311960F8E70D4915280B60F1D10C4B23
:102B000040F213311960EFE70A4B40F213311960BC
:102B1000EAE7084B00211960E1E7054B0021196045
:102B2000DDE700BFE812FF1F3480044040A00440EE
:102B300018C004403C9004400D4B1B6813F48063A4
:102B400005D03F2805D90B4B002018607047184668
:102B50007047094B10B5074C53F830302360012102
:102B6000FFF7B8FC236800221A70012010BD00BFD7
:102B700034800440A012FF1FE05E00000F4B1B6872
:102B800013F4806308D0122808D0142811D00C4AFE
:102B9000537B03F0FE03537300207047094B40F250
:102BA00002321A60064A537B43F00103537301203B
:102BB0007047054B40F202321A60F3E7348004405C
:102BC00000A006400CA0044014C00440034B1B6846
:102BD0005B0501D5FFF78CBD704700BF3480044012
:102BE0002DE9F84F294B1B685A0548D5284B1B681F
:102BF00005460BB101221A7005EB010A554540D27A
:102C0000DFF89C80234CDFF89C90234F0AE015F8F6
:102C1000012B09F80B20214A0123AA45137088F8DB
:102C200000602ED098F80030227803F1010BBBF140
:102C30003F0F86BF0026B3465FFA8BF69345E6D179
:102C4000BC22FA7005E03A7913060BD4227893453A
:102C5000DDD1FFF773FB4028F5DDFF28F6DD01F03D
:102C6000D9FBF3E7227801323F2A86BF00210A46CA
:102C7000D1B219F80220D2B2FA712170E6E7BDE8AC
:102C8000F88F054BBC22DA70BDE8F88F3480044021
:102C90003013FF1F2D13FF1F00A006402C13FF1F32
:102CA0003413FF1FA812FF1F10B5044C237823B163
:102CB00001F0B0FB2378002BFAD110BD2C13FF1FBD
:102CC000064A074B1B781078DBB2C0B283422CBF98
:102CD0003F3000F1FF30C01A704700BF2D13FF1FB7
:102CE0003413FF1F054A064B10781B78C0B2DBB2C5
:102CF000984238BF4030C01A704700BFA412FF1F6F
:102D0000A512FF1F30B4154B154C1A782378D2B298
:102D1000DBB29A421ED001333F2B0ED91149124B20
:102D2000087819680023C0B2237021B1D31A1A2B76
:102D300001DC00230B7030BC70470A480A49C05CB4
:102D40000968DDB2C0B225700029F4D09A4238BFBC
:102D50004032EBE74FF0FF30EDE700BFA412FF1F5A
:102D6000A512FF1FEC12FF1FA012FF1F084A094BFC
:102D700012781B78DBB29A4207D00133402B28BF70
:102D80000023054AD05CC0B270474FF0FF30704757
:102D9000A412FF1FA512FF1FEC12FF1F0D4B1B6893
:102DA0005B0516D530B40C4B0C4CDA780C480D4949
:102DB00002F0CB024025DA705D74DA7842F034021A
:102DC000DA7023780268DBB20B700AB1002313704B
:102DD00030BC70473480044000A00640A512FF1F9D
:102DE000A012FF1FA412FF1FF0B4384B1A7912F083
:102DF000300F2CD072B6997D01F0FF0200293DD032
:102E000062B6334F334938780D78334E1C46C0B222
:102E1000EDB2431C402BE17928BF0023AB4202F105
:102E2000FF32C9B21CBFF154184612F0FF02F0D1B4
:102E30002A4B1B68C2B23A704BB1A84236BFC5F1EB
:102E40004005401B40192728C4BF01221A701F49A2
:102E5000CA78D2B2150616D452060DD51B4B1B7973
:102E60005B0609D51E4B1F491B6800220A7003B17F
:102E70001A70164B3C22DA70F0BC70474022D979A8
:102E80005A7462B6E3E70B791C06E5D5164B174E6C
:102E90001C783378E4B2DBB29C420ED0144D01E0D2
:102EA000A3420AD00133402B28BF00230879E85CF5
:102EB000C0B2C871087D0728F2D9DBB2034933706C
:102EC0000B79180644BF7C23CB70C5E700A00640F1
:102ED000A412FF1FA512FF1FEC12FF1FA012FF1F5D
:102EE0003013FF1F2C13FF1F3413FF1F2D13FF1F61
:102EF000A812FF1F431E032B14D872B60A4951F8BB
:102F0000230068B170B4094C058834F81320466872
:102F100041F82360521B24F8132062B670BC70473E
:102F200062B67047002070479013FF1F9814FF1F70
:102F3000013803280BD872B6074B53F8203043B141
:102F400000205B680130002BFBD162B67047002087
:102F500070471846F9E700BFE413FF1F30B472B69C
:102F60002B4A13781D0706D52A4B196A002936D03B
:102F7000996A002941D053781C0706D5254B196C56
:102F800000293ED0996C002939D09378190705D5CE
:102F9000204B196E002936D0996E89B1D3781B0762
:102FA00007D51C4BD3F880207AB3D3F888201121A1
:102FB0003AB162B6184B00221A7030BC00F062BE03
:102FC0000D21154C154D227843F8315003EBC10308
:102FD0000830013A5860227062B630BC7047042253
:102FE0000D4C0F4D217843F8325003EBC2030830EB
:102FF0004A1E5860227062B6EFE70521E1E7092119
:10300000DFE70822ECE70C22EAE71022E8E700BF3E
:10301000786100000000FF1F0D14FF1FC800400072
:1030200088004000431E032B1DD81B4A400140F07E
:10303000100030B4104472B6184CE25C032A1BD85E
:10304000DFE802F00212151703220D88E25410F097
:10305000080F14BFC823882343EA054308310360DF
:10306000416062B630BC704708300222EDE70522AD
:10307000EBE708300422E8E7094A52F8230038B1A8
:10308000084A52F82300416042F8231062B6E9E78B
:1030900042F82310034AF7E70000FF1F1C14FF1F2C
:1030A000E413FF1FF413FF1F2DE9F04FDFF818B3EF
:1030B000DFF818A387B044E0AE4F4FEA930807EB60
:1030C000C809013ED9F8042003F00803F6B2A2F1C2
:1030D000080003F0FF04002B40F0048157F838305B
:1030E0001B0C99B222F8081C002B00F0F280A24BB6
:1030F00022F8064C42F8044C53F82620002A00F02F
:103100006E819E4D55F8263058609D4C45F826003E
:1031100034F81630194424F8161000F093FD0028F6
:1031200000F05681974A984B19F0080F00F10800FB
:1031300018BF1346C9F8040047F8383008238BF845
:1031400000309BF80040E4B261071BD58F4B1B7821
:10315000ABB18F490A7802F0FF032AB1013BDBB221
:103160000B70002B00F0EF848A490A7802F0FF030D
:103170002AB1013BDBB20B70002B00F0F780042377
:103180008BF8003004F0080303F0FF02002B00F07E
:10319000D6809AF80030DBB21E098DD19C08DFF88A
:1031A000D49159F8342009EBC401C2F38302013AE7
:1031B00049680C2A7ED8DFE802F081817D7D7D7D23
:1031C0007D7D477D7D7D07000868734D4A68734F9C
:1031D000734E286081B240F281606A4B6A604FF0A2
:1031E000010E0022814249F834303A60C9F81020BB
:1031F000C9F8182086F800E05E4C00F2F480B1F5C2
:10320000D06F80F07883B1F5817F00F0628300F2A7
:103210008782802900F0EC82822940F01E83A988F1
:1032200001F07F01042900F218835E485E4C89009A
:103230000844227062700278930740F1798384F821
:1032400000E04FF0020ED8E2544F3A6842B3574BB9
:10325000534E5749188834780D784028864645F0F3
:10326000020828BF4FF0400E002C84F00104347097
:10327000CEEB00000CBF8824C82409EBC80680B23E
:1032800085F0010544EA0E447260188049F8384020
:1032900072440D7018B9BEF1400F18BF00223A6099
:1032A0003D4B1A88B2F5A06F04D100219A7859706D
:1032B000404B1A70404A012313703FE7364A158885
:1032C00042F22100854200F0FF812E4A49F8342065
:1032D000F0E72C4A2C4B19F0080F18BF134647F89B
:1032E00038302BE700F0CEFC344A354952F826300E
:1032F000002B00F0B68158688C5D42F8260003F17F
:103300000802C9F80420032C05D8DFE804F0120FE6
:10331000150204228A551A8819F0080F0CBF882359
:10332000C82343EA024347F8383007E702228A55A8
:10333000F1E703228A55EEE705228A55EBE7E0071D
:1033400000F11A82210600F14982A20706D51D4A22
:103350001D4913780220DBB213700870E30602D512
:10336000194B10221A7007B0BDE8F08F00F0F6FD7F
:1033700005E700BF0000FF1F9013FF1F3C13FF1F56
:103380009814FF1FC8004000880040001814FF1F59
:10339000A113FF1F2014FF1F0414FF1F3813FF1F6A
:1033A000A013FF1FC02007401014FF1F4C13FF1F66
:1033B0000C14FF1F9820074094200740E413FF1FC0
:1033C0001C14FF1F882007408020074090200740E2
:1033D000AB4A47F83800137801331370AEE643F870
:1033E0002600A84D91E642F22100814200F035818D
:1033F00000F2AF81B1F5086F00F01B82B1F5106FDC
:1034000040F02B82226AA049A8780870120600F1C9
:103410004583D9F828209D49130600F13A83D9F84D
:1034200030209A49150600F12F83D9F838209749A2
:10343000140600F12483D9F840209449100600F1C5
:103440001983D9F848209149120600F10E83D9F862
:1034500050208E49130600F10383D9F858208B4978
:10346000150600F1F882D9F860208849140600F1A9
:103470002983D9F868208549100600F11E83D9F800
:1034800070208249120600F11383D9F878207F4911
:10349000130600F10883D9F880207C49150600F155
:1034A0001C83D9F888207949140600F11083D9F8D3
:1034B00090207649100600F1C882D9F89820734907
:1034C000120600F1BC827248724A73490190734837
:1034D0006C4D734C04970023059602958046174661
:1034E0000E461D460394386828B1446800F0CAFBB4
:1034F0002046002CF9D100233B60029B30681A461D
:10350000002342F8253028B1446800F0BBFB204678
:10351000002CF9D100223260019A98F8003011464F
:10352000002241F8042B039A0191023B4FF0000165
:1035300022F81510032B09D8DFE813F04B01040023
:103540004B0104004FF0010388F800300135042DD1
:1035500007F1040706F1040608F10108C3D1514C34
:10356000514B2278464D049F059E002129701A7008
:10357000130700F14F8262784C49DFF810810A701E
:1035800010074FF00001C9F83010C9F8381000F1E9
:103590002B824749A2780A700021C9F85010C9F857
:1035A00058101107DFF8E48000F1DC81E27841492E
:1035B000364C0A7000211207C9F87010C9F878104B
:1035C00000F1B98133780193002183F00102C9F839
:1035D0009010C9F898100020029080468446044656
:1035E00035490D7845F0020E09EBCE030393019B9C
:1035F000002B039B5C600CBF8824C82444EA0803AA
:1036000085F0010449F83E3032700C70DFF87CE040
:103610002A4BDFF8A480002840F02681BCF1400F3F
:103620001BD144F0020C09EBCC03029CDFF85CE0F8
:103630005C60002A40F02E81020442F088029DF86E
:1036400004304EF83C20044433700D70234640286B
:1036500003D100201A4A3B6010801A4A01231370DC
:1036600028E68B5D032B00F22D8101A252F823F096
:103670003D3100003D310000C7370000CD3700006C
:103680000D14FF1F3C13FF1F1814FF1F0000FF1F26
:10369000F413FF1F9013FF1FE413FF1F1C14FF1FE1
:1036A0009814FF1F78610000C4200740C82007401D
:1036B000CC200740D02007400C14FF1FA013FF1F91
:1036C0004C13FF1F94200740928892B9B14A0D789D
:1036D0004878157050708D78C8789570D0701068E3
:1036E0000D79157186284D7989795571917100F0A0
:1036F000A580A949A94E0A78307882F001050028F2
:1037000042F002020D700CBF8821C82149F8321026
:1037100009EBC20280F00100002130705160D4E555
:1037200040F20232914240F08D80A98801F07F0181
:10373000042900F292806A88002A40F08E8098481E
:10374000CDF804E089000844017841F002010170DD
:1037500041E742F2212081427BD1A988002940F033
:10376000E480904B904A9148AC781D681560CDF884
:1037700004E00A4604702EE78D4B8E4886491A6194
:103780004FF0020E80F800E0854F0A708A491960F8
:1037900099608A4E8A4D8B4C9A610D213970FF21B8
:1037A0003170DFF840E229702270874D874A8EF829
:1037B00000109F27012406F8047C5D600470DA6025
:1037C00007B0BDE8F08F00238B55B7E401238B557C
:1037D000B4E44FF0000388F80030B7E67049784B46
:1037E00080220D2008701A70A2077FF5B7ADAEE5F4
:1037F000774C4FF0020E22706270EA88724580F0BA
:10380000A38165490D78402A944645F0020E28BFF1
:103810004FF0400C04EB0C0309EBCE0002930123A4
:1038200044604FEA0C48CCEB020001930022C8240C
:10383000E4E6684A664C12782270DEE7664A0F2199
:10384000117056E7B1F5A06F07D101230022019353
:10385000C1E642F221329142F7D0514A0F23137050
:10386000544A0123137025E540287FF6DAAE44F070
:1038700002040EEBC401029E4E60BAB19DF8041022
:10388000564A19703346403888F8005040334EF895
:103890003420DFE69DF8043033700204029B0D7083
:1038A00042F0C80203444EF83C20D0E69DF80410D4
:1038B0001970029B404A88F80050403840334EF857
:1038C0003420C7E619F0080F0CBF022303238B55E1
:1038D00034E4A98801F07F010429BED86A88002A4F
:1038E000BBD12F48CDF804E089000844017821F0CD
:1038F000020101706FE63A4A5468002CADD0688826
:10390000B5F804E003E00C325468002CA5D013880D
:103910008342F8D153887345F5D1000A03280CBFC0
:1039200094F800E0B2F808E067E7CDF804E052E66A
:103930004FF0020E61E700F085F9002800F0F180F9
:1039400008301D4AC4F88400C4F8802000F07AF9D9
:10395000002800F0E0800830204AC9F88C00C9F83F
:1039600088202FE600F06EF9002800F0E68008308D
:10397000114AC8F86400C8F8602000F063F9002814
:1039800000F0D5800830154AC9F86C00C9F86820E5
:103990000CE600BFA014FF1F0C14FF1FA013FF1F95
:1039A000C02007409C12FF1FA814FF1F3014FF1FE8
:1039B0000000FF1F94200740880040008820074037
:1039C00080200740982007405013FF1FA413FF1FBB
:1039D0001014FF1F1814FF1FA113FF1FC800400081
:1039E0007C6100008C20074000F02CF9002800F0DA
:1039F0008C8008305D4AC8F84400C8F8402000F0C8
:103A000021F900287BD00830594AC9F84C00C9F880
:103A10004820BEE500F016F900286AD00830534A65
:103A2000C9F82400C9F8202000F00CF900285AD069
:103A300008304F4AC9F82C00C9F828209BE5D1F876
:103A40009C00083800F01EF93DE5D1F894000838D4
:103A500000F018F931E5C86D083800F013F902E5F7
:103A6000486D083800F00EF9F7E4C86C083800F02B
:103A700009F9ECE4486C083800F004F9E1E4C86B9B
:103A8000083800F0FFF8D6E4486B083800F0FAF880
:103A9000CBE4C86A083800F0F5F8C0E4606A08387A
:103AA00000F0F0F8B5E4C86F083800F0EBF8F2E485
:103AB000486F083800F0E6F8E7E4C86E083800F010
:103AC000E1F8DCE4486E083800F0DCF8D1E4D1F825
:103AD0008C00083800F0D6F8E9E4D1F88400083802
:103AE00000F0D0F8DDE42A78C9F8280001322A7005
:103AF00041E52A78C9F8200001322A7094E72A7833
:103B0000C9F8480001322A7043E52A78C8F8400015
:103B100001322A7073E72A78C9F8880001322A70C6
:103B200050E52A78C4F8800001322A700EE72A781E
:103B3000C9F8680001322A7038E52A78C8F86000B0
:103B400001322A7019E700BEBEF1400FF44628BFCB
:103B50004FF0400C04EB0C0302930123CCEB0E005E
:103B60004FEA0C48002201933AE500BF880040006C
:103B7000C80040002DE9F041274C00F057FD00221D
:103B800004F1A00023461A605A60083383424FF0C4
:103B90000001F8D12148224A0368DFF89CE0214E59
:103BA000214D224FDFF894C0DFF8948043F4802346
:103BB0000360136843F04073136003238EF80030F2
:103BC000A023337002F5C922C4F3072300F528307F
:103BD0002B708030C4F3074310323B70240EFF2358
:103BE0000470134D8CF80030124888F800301370C0
:103BF000012306F8AC3C4FF400140EF8441C702668
:103C0000102107F82C3C2E70046082F8F810AEF1F9
:103C1000440EBDE8F08100BF0000FF1F3480044067
:103C200000D80040402107409C200740B0200740BA
:103C300035E400E004E100E0442107408020074033
:103C40008820074072B60D480268B2FA82F30B2B47
:103C500010DC4FF00041D94022EA0102026062B656
:103C6000074803EBC303DB00C2180021C150104614
:103C70005160704762B60020704700BFBC08FF1F4C
:103C8000D003FF1F0D4B0E4AC31AA2FB03231B09CF
:103C90000B2B0CD80B4A127852B972B60A484FF067
:103CA0000041026821FA03F31A43026062B67047CA
:103CB000064A1278002AF0D0FFF750B9D003FF1F50
:103CC000398EE3380D14FF1FBC08FF1F1814FF1FA7
:103CD00038B50F4D286878B143880288C118013380
:103CE00093420C7A02D24380204638BDFFF7CAFFC8
:103CF000002320462B6038BD064B1B782BB10320D8
:103D0000FFF7F8F828600028E6D14FF0FF3038BD03
:103D10002C14FF1F1814FF1F10B5094C206818B190
:103D200043881844007A10BD064B1B782BB1032042
:103D3000FFF7E0F820600028F2D14FF0FF3010BD0F
:103D40002C14FF1F1814FF1F044B054A1B68908892
:103D50001BB11A885B88D31A184470472C14FF1FB4
:103D60009814FF1F0B4B1B789BB110B50A4C2068B1
:103D700048B1FFF787FF002303202360FFF7BAF85D
:103D800030B1FFF77FFF0320FFF7B4F80028F8D128
:103D900010BD70471814FF1F2C14FF1F2DE9F04FA2
:103DA000DFF8F89083B0012289F80020019169B30F
:103DB000DFF8EC80354F019E8346D8F80000B0B3A1
:103DC000334D4488C4F14001B14228BF314604EB71
:103DD000010E00221FFA8EFE2A70761AA0F802E069
:103DE00000F1080251B1013C224459441BF8014B37
:103DF00002F8014F8B45F9D1B0F802E0BEF13F0F58
:103E00000BD8244A05211170002ED6D10198002329
:103E100089F8003003B0BDE8F08F402202800146EF
:103E20000420FFF7FFF80022C8F80020E9E73A78FD
:103E300022B3194C164D4FF0010A07E0013C16D091
:103E40002A78A2B900F0E6FA3A78BAB10420FFF76E
:103E50006FF80728F2D889F800A0FFF7F3FEC8F83A
:103E600000000028ADD10D4B013C1870E8D10123B2
:103E70004FF0FF302B7003B0BDE8F08F00234FF000
:103E8000FF3089F8003003B0BDE8F08F1814FF1F31
:103E90002814FF1F2014FF1F214801002114FF1FB9
:103EA0002414FF1F00B583B002AB012103F8010DFC
:103EB0001846FFF773FF03B05DF804FB38B50E4DED
:103EC0000E4C28680123237028B1408800232370FA
:103ED000C0F1400038BD0A4B1B7813B90020207098
:103EE00038BD0420FFF724F80728F7D8FFF7AAFE0B
:103EF00028600028E9D1F1E72414FF1F2114FF1FD7
:103F00001814FF1FF8B5114B1B788BB1104E114DD3
:103F1000346801272F7064B10F4A63880027177037
:103F2000214623800420FFF77DF8376000232B70A3
:103F3000F8BDFFF787FE084B28B1014604201C702E
:103F4000FFF770F8F2E71F70F0E700BF1814FF1FCB
:103F50002414FF1F2114FF1F2014FF1F38B50E4B20
:103F60001B7873B90D4C216861B103F0FF054B88D4
:103F70000B800420FFF756F8256038BD084B01225E
:103F80001A7038BDFFF75EFE0028F7D00146BDE885
:103F900038400420FFF746B82114FF1F2414FF1FE8
:103FA0002014FF1F10B4EFF3108272B6437F33B9B1
:103FB000017F012908D0032910D00123437702B9DA
:103FC00062B65DF8044B7047114C2168A1B11149EC
:103FD00043610B68836108605861EEE70E4C21680D
:103FE00081B10E4943610B688361086058610C4BD5
:103FF0004FF080511960E0E7064B4161816120601C
:104000001860DAE7054B4161816120601860EEE7D6
:104010004014FF1F3C14FF1F3414FF1F3814FF1FF0
:1040200004ED00E070B5EFF3108272B60C4C20681E
:1040300080B10C4E00254369236073B19D6102B9C4
:1040400062B6457783689847EFF3108272B62068AE
:104050000028F0D102B962B670BD3360EFE700BF4F
:104060003414FF1F3814FF1FFFF7DCBF024A136828
:1040700001331360704700BF9C12FF1F0368C9B271
:104080001B6818470368C9B21B6818470368C9B2A0
:104090001B6818470368C9B21B681847084B4A08D1
:1040A000134410B50446B3FBF1F0FEF773FB054B68
:1040B0001B7803B110BD2046BDE8104000F0F8BAEF
:1040C000002A7515D408FF1F08B50846FEF77EFDC7
:1040D000012008BD08B50846FEF778FD012008BD9F
:1040E00038B508460D4601F0EBFA0446014628466D
:1040F000FEF776FD204638BD10B508461446114639
:10410000FEF76EFD204610BDFEF748BE08B5084616
:10411000FEF734FD003018BF012008BD08B5084681
:10412000FEF70AFD003018BF012008BD0846114601
:10413000FEF77EBC0846FEF7C5BC00BF0846FEF78A
:104140005BBC00BFFEF7E4BB10B5064B144603EBA7
:104150005100B0FBF1F0FEF71DFB2046BDE810401A
:10416000FEF7A0BB002A7515FEF700BEFEF7CABD1C
:10417000FEF7B8BDFEF798BDFEF7A2BD08B5FCF787
:104180004BFBFCF7D1FA00F045F9FAE700B5064A17
:10419000036812885B6883B001A9ADF8042002228D
:1041A000984703B05DF804FB40610000F0B5074696
:1041B0008BB0002A33D0012A08BF0A2251B3212430
:1041C00000E0F4B2B1FBF2F502FB1511C8B2092907
:1041D00000F1300198BFC8B20AA988BF3730214426
:1041E00088BFC0B201F8240C661E2946002DE8D114
:1041F00033B1013CE4B20AAB23442D2203F8242C52
:104200003B6801AA11195B683846C4F1220298473D
:104210000BB0F0BD30228DF825202124E8E703689B
:10422000C9B21B6898470BB0F0BD00BFFFFFFFFF8E
:104230002DE9F04357EC106B85B005460C4610EEA7
:10424000102A3B4610EE100A394600F09BFE00286B
:1042500040F0B28027F00049304649464FF0FF3227
:10426000594B00F08FFE90B9304649464FF0FF326F
:10427000554B00F069FE50B92B6854495B682846DD
:10428000032298478046404605B0BDE8F0834FF0D2
:1042900060424F4B3046394600F06AFE002872D12A
:1042A0004FF060424B4B3046394600F043FE002849
:1042B00069D1002200233046394600F03BFE002839
:1042C00064D18146002C67D0434900204FF000089C
:1042D0003BA3D3E9002308F1010800F0B9FB5FFA22
:1042E00088F39C42F4D802460B463046394600F02B
:1042F000FDF90F46064600F05BFE804600F032FBFB
:1043000002460B463046394600F0EEF94B4606466B
:104310000F460A2241462846FFF748FF0F2C28BFC8
:104320000F2404F101092E2380465FFA89F98DF8E4
:10433000003001240022294B3046394600F088FB2A
:104340000F46064600F034FE04AB2344C0B200F131
:10435000300203F8102C00F015FB02460B463046E5
:10436000394600F0C1F90134E4B24C4506460F4627
:10437000E0D12B6822465B6828466946984740464C
:1043800005B0BDE8F0832B68154977E707F10043D6
:104390001F464FF0010995E700220F4B3046394682
:1043A00000F0A4F900F004FE4B4601460A2228461C
:1043B000FFF7FCFE804666E72B680A495EE700BF10
:1043C000000000A09999B93FFFFFEF7F4C6100000A
:1043D000FFFFEF41FFFFEFC10000E03F000024407E
:1043E0004861000044610000704700BFFFF7BABC9D
:1043F000FFF792BCFFF76CBCFFF7A6BCFFF782BDCE
:10440000FFF75CBD08461146FFF7C8BC0846FFF73A
:1044100049BD00BF2DE9F843314E337893B1314F98
:104420003A787AB90122D9073A7036D49A0719D462
:1044300000225B073A7005D52B4B1A6812B1EFF3D7
:1044400005820AB1BDE8F883EFF3108172B61868EF
:1044500018B1264C2278002A2ED00029F2D162B65B
:10446000BDE8F883DFF8908098F80020002ADFD0BC
:10447000DFF88890002405E0013498F80030E4B2B9
:10448000A34212D959F824502B6828461B69984733
:104490000028F1D02B699847EEE7FFF755FCC8B923
:1044A000134B1B781BB93378C0E73378C0E73378F8
:1044B00003F0FE033370B9E745691D6001232370E3
:1044C0005DB1AA6101B962B6002545778368984756
:1044D0002570B7E700F002F9E2E7064B1D60F1E74F
:1044E000E808FF1F4514FF1F4014FF1F4414FF1F5F
:1044F0008E09FF1F3C14FF1F6014FF1F4814FF1F8D
:1045000030B42948294A2A4B2A4D6024E1210470FD
:1045100011701B78284C082B30D00A2B27482849CB
:1045200037D00C2B0CBF35225D2212232A6023606A
:1045300002600B60234B24491B78244ABBB1012342
:104540000B601360224B23491B78234A012B26D989
:10455000042B0FD9082B1ED9102B94BF8623872339
:104560000B6013601D4B01221A7030BC70470B604A
:104570001360E7E784230B601360F3E700F58E20F8
:104580000F490830212213232A60236002600B6048
:10459000D0E73922F7E785230B601360E2E7802339
:1045A0000B601360DEE700BF00400740014007409A
:1045B000E908FF1F08B003400CB0034008B00B40EF
:1045C0000CB00B404714FF1F20B0034020B00B403D
:1045D000EA08FF1F24B0034024B00B404614FF1F1D
:1045E000F0B44D1E2E46002400E00134B0FBF2F37F
:1045F00002FB1300092800F130078ABF3730F8B2F8
:10460000C0B206F8010F1846002BEED10A195370FC
:104610004CB1107815F8016F28700133E01A83420D
:1046200002F80169F5DB0846F0BC704710B584B0AC
:1046300072B6FDF7A1FE184A184B19491160702295
:1046400080211A701A46197013781B06FCD5154B79
:104650001C68FDF7ABFE62B6134B9C429CBF04EB9B
:10466000840464002046114C01A90A22FFF7B8FF18
:1046700001A92046002311F8012B01333AB10A2B7E
:1046800020F8022FF7D11623237004B010BD5B0071
:10469000DBB2237004B010BD0400024000000240F1
:1046A000000007410C0002407F9698007809FF1F28
:1046B00030B40749074C0A782378074D42F00202CC
:1046C00045F823000A700133237030BC704700BFE7
:1046D000E808FF1F6014FF1F4814FF1F704700BF4A
:1046E00081F0004102E000BF83F0004330B54FEAA3
:1046F00041044FEA430594EA050F08BF90EA020F10
:104700001FBF54EA000C55EA020C7FEA645C7FEAA2
:10471000655C00F0E2804FEA5454D4EB5555B8BFC5
:104720006D420CDD2C4480EA020281EA030382EA36
:10473000000083EA010180EA020281EA0303362DC8
:1047400088BF30BD11F0004F4FEA01314FF4801C9B
:104750004CEA113102D0404261EB410113F0004FAD
:104760004FEA03334CEA133302D0524263EB430364
:1047700094EA050F00F0A780A4F10104D5F1200E02
:104780000DDB02FA0EFC22FA05F2801841F100015D
:1047900003FA0EF2801843FA05F359410EE0A5F131
:1047A00020050EF1200E012A03FA0EFC28BF4CF062
:1047B000020C43FA05F3C01851EBE37101F0004518
:1047C00007D54FF0000EDCF1000C7EEB00006EEB25
:1047D0000101B1F5801F1BD3B1F5001F0CD34908AF
:1047E0005FEA30004FEA3C0C04F101044FEA445206
:1047F00012F5800F80F09A80BCF1004F08BF5FEA8D
:10480000500C50F1000041EB045141EA050130BD6C
:104810005FEA4C0C404141EB010111F4801FA4F10F
:104820000104E9D191F0000F04BF01460020B1FA64
:1048300081F308BF2033A3F10B03B3F120020CDA9C
:104840000C3208DD02F1140CC2F10C0201FA0CF07A
:1048500021FA02F10CE002F11402D8BFC2F1200CDF
:1048600001FA02F120FA0CFCDCBF41EA0C01904095
:10487000E41AA2BF01EB0451294330BD6FEA0404DE
:104880001F3C1CDA0C340EDC04F11404C4F12002C9
:1048900020FA04F001FA02F340EA030021FA04F3DB
:1048A00045EA030130BDC4F10C04C4F1200220FA32
:1048B00002F001FA04F340EA0300294630BD21FA70
:1048C00004F0294630BD94F0000F83F4801306BF36
:1048D00081F480110134013D4EE77FEA645C18BF2A
:1048E0007FEA655C29D094EA050F08BF90EA020FC1
:1048F00005D054EA000C04BF1946104630BD91EAB9
:10490000030F1EBF0021002030BD5FEA545C05D1BB
:104910004000494128BF41F0004130BD14F58004FA
:104920003CBF01F5801130BD01F0004545F0FE416E
:1049300041F470014FF0000030BD7FEA645C1ABFA3
:10494000194610467FEA655C1CBF0B46024650EADA
:10495000013406BF52EA033591EA030F41F4002106
:1049600030BD00BF90F0000F04BF0021704730B58C
:104970004FF4806404F132044FF000054FF0000161
:1049800050E700BF90F0000F04BF0021704730B522
:104990004FF4806404F1320410F0004548BF4042F7
:1049A0004FF000013EE700BF42004FEAE2014FEA4C
:1049B00031014FEA02701FBF12F07F4393F07F4F27
:1049C00081F06051704792F0000F14BF93F07F4F59
:1049D000704730B54FF4607401F0004521F000419C
:1049E00020E700BF50EA010208BF704730B54FF022
:1049F00000050AE050EA010208BF704730B511F027
:104A0000004502D5404261EB41014FF4806404F15E
:104A100032045FEA915C3FF4DCAE4FF003025FEAE0
:104A2000DC0C18BF03325FEADC0C18BF033202EB68
:104A3000DC02C2F1200300FA03FC20FA02F001FAC2
:104A400003FE40EA0E0021FA02F11444C1E600BF61
:104A500070B54FF0FF0C4CF4E06C1CEA11541DBF14
:104A60001CEA135594EA0C0F95EA0C0F00F0DEF8DF
:104A70002C4481EA030621EA4C5123EA4C5350EAC4
:104A8000013518BF52EA033541F4801143F4801315
:104A900038D0A0FB02CE4FF00005E1FB02E506F0A6
:104AA0000042E0FB03E54FF00006E1FB03569CF0FB
:104AB000000F18BF4EF0010EA4F1FF04B6F5007F01
:104AC00064F5407404D25FEA4E0E6D4146EB060673
:104AD00042EAC62141EA55514FEAC52040EA5E50FC
:104AE0004FEACE2EB4F1FD0C88BFBCF5E06F1ED8A6
:104AF000BEF1004F08BF5FEA500E50F1000041EBDD
:104B0000045170BD06F0004646EA010140EA020089
:104B100081EA0301B4EB5C04C2BFD4EB0C0541EAAB
:104B2000045170BD41F480114FF0000E013C00F3C0
:104B3000AB8014F1360FDEBF002001F0004170BDE4
:104B4000C4F10004203C35DA0C341BDC04F11404FD
:104B5000C4F1200500FA05F320FA04F001FA05F289
:104B600040EA020001F0004221F0004110EBD37056
:104B700021FA04F642EB06015EEA430E08BF20EA82
:104B8000D37070BDC4F10C04C4F1200500FA04F325
:104B900020FA05F001FA04F240EA020001F00041B7
:104BA00010EBD37041F100015EEA430E08BF20EA2A
:104BB000D37070BDC4F1200500FA05F24EEA020E72
:104BC00020FA04F301FA05F243EA020321FA04F0A1
:104BD00001F0004121FA04F220EA020000EBD37058
:104BE0005EEA430E08BF20EAD37070BD94F0000F58
:104BF0000FD101F00046400041EB010111F4801F8C
:104C000008BF013CF7D041EA060195F0000F18BF3C
:104C1000704703F00046520043EB030313F4801F78
:104C200008BF013DF7D043EA0603704794EA0C0F32
:104C30000CEA135518BF95EA0C0F0CD050EA410648
:104C400018BF52EA4306D1D181EA030101F00041C5
:104C50004FF0000070BD50EA410606BF10461946ED
:104C600052EA430619D094EA0C0F02D150EA0136F9
:104C700013D195EA0C0F05D152EA03361CBF10463A
:104C800019460AD181EA030101F0004141F0FE41D9
:104C900041F470014FF0000070BD41F0FE4141F45D
:104CA000780170BD70B54FF0FF0C4CF4E06C1CEA5D
:104CB00011541DBF1CEA135594EA0C0F95EA0C0F12
:104CC00000F0A7F8A4EB050481EA030E52EA0335CD
:104CD0004FEA013100F088804FEA03334FF08055EE
:104CE00045EA131343EA12634FEA022245EA11151B
:104CF00045EA10654FEA00260EF000419D4208BFCC
:104D0000964244F1FD0404F5407402D25B084FEA78
:104D10003202B61A65EB03055B084FEA32024FF424
:104D200080104FF4002CB6EB020E75EB030E22BF81
:104D3000B61A754640EA0C005B084FEA3202B6EB41
:104D4000020E75EB030E22BFB61A754640EA5C00F0
:104D50005B084FEA3202B6EB020E75EB030E22BF80
:104D6000B61A754640EA9C005B084FEA3202B6EB81
:104D7000020E75EB030E22BFB61A754640EADC0040
:104D800055EA060E18D04FEA051545EA16754FEAA2
:104D900006164FEAC30343EA52734FEAC2025FEAC0
:104DA0001C1CC0D111F4801F0BD141EA00014FF04F
:104DB00000004FF0004CB6E711F4801F04BF014320
:104DC0000020B4F1FD0C88BFBCF5E06F3FF6AFAE3C
:104DD000B5EB030C04BFB6EB020C5FEA500C50F1CC
:104DE000000041EB045170BD0EF0004E4EEA11314F
:104DF00014EB5C04C2BFD4EB0C0541EA045170BD56
:104E000041F480114FF0000E013C90E645EA060E99
:104E10008DE60CEA135594EA0C0F08BF95EA0C0FC7
:104E20003FF43BAF94EA0C0F0AD150EA01347FF40F
:104E300034AF95EA0C0F7FF425AF104619462CE7E6
:104E400095EA0C0F06D152EA03353FF4FDAE104649
:104E5000194622E750EA410618BF52EA43067FF49A
:104E6000C5AE50EA41047FF40DAF52EA43057FF42A
:104E7000EBAE12E74FF0FF3C06E000BF4FF0010C35
:104E800002E000BF4FF0010C4DF804CD4FEA410C99
:104E90007FEA6C5C4FEA430C18BF7FEA6C5C1BD066
:104EA00001B050EA410C0CBF52EA430C91EA030FE7
:104EB00002BF90EA020F0020704710F1000F91EA44
:104EC000030F58BF994208BF90422CBFD8176FEA12
:104ED000E37040F0010070474FEA410C7FEA6C5CE0
:104EE00002D150EA013C07D14FEA430C7FEA6C5CE7
:104EF000D6D152EA033CD3D05DF8040B704700BF13
:104F00008446104662468C461946634600E000BF60
:104F100001B5FFF7B7FF002848BF10F1000F01BD32
:104F20004DF808EDFFF7F4FF0CBF012000205DF8FD
:104F300008FB00BF4DF808EDFFF7EAFF34BF012082
:104F400000205DF808FB00BF4DF808EDFFF7E0FF1B
:104F500094BF012000205DF808FB00BF4DF808ED6C
:104F6000FFF7CEFF94BF012000205DF808FB00BFD3
:104F70004DF808EDFFF7C4FF34BF012000205DF8B5
:104F800008FB00BF4FEA410C7FEA6C5C02D150EA9B
:104F9000013C0AD14FEA430C7FEA6C5C02D152EA31
:104FA000033C02D14FF0000070474FF00100704702
:104FB0004A0011D212F5001211D20DD56FF4787398
:104FC000B3EB62520ED44FEAC12343F0004343EAED
:104FD000505323FA02F070474FF00000704750EA38
:104FE000013002D14FF0FF3070474FF000007047A2
:104FF000014B1868704700BFB80DFF1F70B50F4E0A
:105000000F4D761BB61018BF002405D0013455F89B
:10501000043B9847A642F9D10A4E0B4D761B01F08E
:10502000D9F8B61018BF002406D0013455F8043B57
:105030009847A642F9D170BD70BD00BFE061000085
:10504000E0610000EC610000E0610000024B0146FD
:10505000186800F003B800BFB80DFF1F2DE9F04F2E
:1050600001F10B05162D83B0064640F29F8035F006
:10507000070500F1BF80A94200F2BC8000F0F4FAFD
:10508000B5F5FC7FC0F09C826B0A00F0BA80042B5F
:1050900000F28381A80900F1390E4FEA4E0338303F
:1050A000C44F07EB8303A3F108015C68A14207D159
:1050B000ACE0002A80F2AC80E468A14200F0A68057
:1050C000636823F003035A1B0F2AF2DDB9493C69D8
:1050D00001F1080E744500F0B381636823F0030307
:1050E0005A1B0F2A00F39981002AC1F814E0C1F875
:1050F00010E080F29E80B3F5007F80F06781DB08CE
:1051000003F1010C01229B1002FA03F34A6851F8E3
:105110003C80C4F8088001EBCC091A43A9F10803CC
:10512000E3604A6041F83C40C8F80C408310012419
:105130009C40944200F28A80144206D120F0030081
:105140006400144200F10400FAD007EBC009CC4619
:105150008046DCF80C108C4507D173E1002A80F200
:105160008181C9688C4500F06D814B6823F0030391
:105170005A1B0F2AF2DD0C46D1F80CC054F8088FE8
:105180004B1945F001054D6042F00101C8F80CC013
:105190003046CCF808807B613B61C3F80CE0C3F873
:1051A00008E059609A5000F061FA1FE0102921D8F8
:1051B00000F05AFA1025062302207E4F07EB8303E6
:1051C000A3F108025C68944200F045816368E168DD
:1051D000A56823F00303234430465A68E96042F08F
:1051E00001028D605A6000F041FA0834204603B095
:1051F000BDE8F08F00240C232046336003B0BDE8E7
:10520000F08F80234FF0400E3F2049E770465DE766
:105210002344E1685A68A56842F00102E96030461B
:105220008D605A6000F022FA0834204603B0BDE8D1
:10523000F08F234430465A6842F001025A6000F071
:1052400015FA0834204603B0BDE8F08FBC686368E7
:1052500023F00308A84504D3C5EB08030F2B00F384
:105260008C80554BDFF860911A68D9F80030013313
:105270002A4404EB080A00F0608102F580520F32E4
:1052800022F47F6222F00F0211463046019200F0B4
:10529000EFF9B0F1FF3F8346019A00F05881824553
:1052A00000F2FC80454B1968DA451144196000F0A2
:1052B0005381D9F80000DFF810E101301BBFCAEBC1
:1052C0000B0A5144CEF800B019601BF0070100F042
:1052D0001781C1F10800C1F58051834408315A4457
:1052E000C2F30B02C2EB010949463046019300F0BC
:1052F000BFF9431C019B00F03F81CBEB00024A4405
:1053000042F001021968C7F808B04944BC42CBF822
:1053100004201960DFF8A49016D0B8F10F0F40F206
:10532000FD806268A8F10C0323F00703E01802F087
:1053300001024FF0050E1A430F2B6260C0F804E023
:10534000C0F808E000F21C811D4BBC681A6891424D
:1053500088BF19601B4B1A689142626888BF196048
:1053600022F003029542A2EB050301D80F2B04DCC7
:10537000304600F07BF9002438E7621943F001035E
:1053800045F0010565603046BA60536000F06EF983
:105390000834204603B0BDE8F08F142B71D9542B8C
:1053A00000F2A480280B00F16F0E4FEA4E036E301E
:1053B00076E600BFBC0DFF1F6C14FF1F7014FF1FAB
:1053C0006814FF1F6414FF1FC811FF1F5A0A042A24
:1053D0005ED9142A00F2B38002F15C0149005B320D
:1053E00007EB810C57F82110DFF8DC81ACF1080CD9
:1053F0008C4500F088804A6822F00302934202D272
:1054000089688C45F7D1D1F80CC07A68C4F80CC013
:10541000A160CCF80840CC6088E6631942F001072F
:1054200045F00105656030464B610B61C3F80CE047
:10543000C3F808E05F609A50083400F017F9D5E629
:105440004A6873E608F1010818F0030F0CF1080C24
:105450007FF47FAE30E0DC68A34208BF02303FF447
:1054600035AEB3E60B440C465A68C96854F8085F79
:1054700042F001025A603046E9608D6000F0F6F8B3
:10548000B4E603F15C0E03F15B004FEA4E0307E65E
:105490009A0902F1390149003832A1E7BC424A4B6E
:1054A0003FF400AF9C68626822F003025AE759F8A3
:1054B0000839994540F0828010F0030F00F1FF3069
:1054C000F5D17B6823EA04037B6064009C423FF6CD
:1054D000BDAE002C3FF4BAAE1C4240467FF435AE60
:1054E00064001C4200F10400FAD02EE6B3F5AA7F56
:1054F00018D8E80B00F1780E4FEA4E037730CFE56D
:105500004FF48051EBE60121D8F80430921001FAF3
:1055100002F21A43C8F80420614677E70123CBF86A
:10552000043025E740F25452934220D8A80C00F1F1
:105530007D0E4FEA4E037C30B2E51032A4E6542AC9
:1055400026D81A0B02F16F0149006E3248E7BC6899
:10555000626822F0030205E7CAF30B0000287FF41B
:10556000A8AE4244BB6842F001025A60ECE6FE235A
:105570004FF07F0E7E2093E501224FF00009C1E637
:1055800004F10801304600F07BF9D9F80010DBE6A1
:10559000B2F5AA7F05D8DA0B02F17801490077321B
:1055A0001EE740F254518A4205D89A0C02F17D015F
:1055B00049007C3214E7FE217E2211E77B6884E7F4
:1055C000E808431C5B00F8E5BC0DFF1F70B48407BE
:1055D00046D0541E002A41D0CDB2034602E0621EDE
:1055E000E4B3144603F8015B9A07F8D1032C2ED9D3
:1055F000CDB245EA05250F2C45EA054519D903F139
:1056000010022646103E0F2E42F8105C42F80C5C49
:1056100042F8085C42F8045C02F11002F2D8A4F1EE
:10562000100222F00F0204F00F041032032C134476
:105630000DD91E462246043A032A46F8045BFAD8DE
:10564000221F22F003020432134404F003042CB19D
:10565000C9B21C4403F8011BA342FBD170BC7047C4
:1056600014460346C2E700BF704700BF704700BF43
:1056700038B5074C0023054608462360FCF748FE72
:10568000431C00D038BD2368002BFBD02B6038BDF5
:10569000AC14FF1FFFFFFFFFFFFFFFFFFFFFFFFF38
:1056A000FFFFFFFFFFFFFFFFFFFFFFFFFFFFFFFF0A
:1056B000FFFFFFFFFFFFFFFFFFFFFFFFFFFFFFFFFA
:1056C00090F800F06DE9024520F007016FF0000C42
:1056D00010F0070491F820F040F049804FF00004EA
:1056E0006FF00700D1E9002391F840F000F10800C5
:1056F00082FA4CF2A4FA8CF283FA4CF3A2FA8CF3FD
:105700004BBBD1E9022382FA4CF200F10800A4FA63
:105710008CF283FA4CF3A2FA8CF3E3B9D1E90423B7
:1057200082FA4CF200F10800A4FA8CF283FA4CF3EE
:10573000A2FA8CF37BB9D1E9062301F1200182FAA8
:105740004CF200F10800A4FA8CF283FA4CF3A2FAAE
:105750008CF3002BC6D0002A04BF04301A4612BABC
:10576000B2FA82F2FDE8024500EBD2007047D1E9BF
:10577000002304F00305C4F100004FEAC50514F04E
:10578000040F91F840F00CFA05F562EA05021CBF1F
:1057900063EA050362464FF00004A9E7024B13B128
:1057A000024800F005B8704700000000BD57000037
:1057B000002301461A46184600F04AB938B5074D8D
:1057C000074C2C1BA41005D0013C55F8043D98470C
:1057D000002CF9D1BDE8384000F008BD0000000001
:1057E00000000000F8B5234F0C460646FFF73CFFCB
:1057F000BB685D6825F00305291B01F6EF7121F4F4
:105800007F6121F00F01A1F58054B4F5805F07DBC3
:1058100000213046FFF72CFFBB682B44984204D090
:105820003046FFF723FF0020F8BD61423046FFF706
:105830001FFF01300DD0104BBA6819682D1B45F0C1
:1058400001053046091B55601960FFF70FFF012065
:10585000F8BD00213046FFF70BFFBA68831A0F2B03
:10586000DEDD064C0449246843F00103001B53604D
:105870000860D5E7BC0DFF1F7014FF1FC811FF1F84
:10588000002945D02DE9F0410D468046FFF7ECFE9A
:1058900055F8047C6A4927F00103A5F10804E218D1
:1058A0008E685068B24220F0030062D0FE0750605C
:1058B0000BD455F8087CE41B01F1080EA56875456A
:1058C0003B446FD0E768EF60BD6015186D68ED0769
:1058D00042D543F001026260E350B3F5007F18D275
:1058E000DB085A1C4D6851F83270A76001209B10EC
:1058F00000FA03F301EBC2001D430838E0604D607D
:1059000041F83240FC604046BDE8F041FFF7AEBED2
:1059100070475A0A042A53D89A0902F139077F00BE
:1059200002F1380501EB870051F827204449083877
:1059300090424DD0516821F003018B4202D292680F
:105940009042F7D1D068E060A2608460D4604046A5
:10595000BDE8F041FFF78ABE95683A4FBD42034467
:105960003FD0D068E86043F0010285606260E35098
:10597000B3E7FF07034407D455F8082CA41A1344CF
:10598000A068E268C26090602F4A126843F001008C
:10599000934260608C60B6D32C4B40461968FFF789
:1059A00021FFB0E711184968C90744D49168D2684B
:1059B000CA60034443F0010091606060E350A2E7D5
:1059C000142A17D802F15C077F0002F15B05A9E7F2
:1059D000AA104B68012505FA02F213434B600246F8
:1059E000B1E743F001024C610C61E560A5606260C3
:1059F000E35088E7542A06D81A0B02F16F077F009C
:105A000002F16E058EE7B2F5AA7F06D8DA0B02F135
:105A100078077F0002F1770584E740F25450824214
:105A200006D89A0C02F17D077F0002F17C0579E728
:105A3000FE277E2576E743F001026260E35062E7CD
:105A4000BC0DFF1FC40DFF1FC411FF1F6C14FF1FEF
:105A50002DE9F047254C2568D5F84841064688468B
:105A600092469946C4B360681F2817DC431C76B180
:105A700004EB80050122C5F888A0D4F88811824083
:105A80001143022EC4F88811C5F808911ED00230C7
:105A9000636044F820800020BDE8F087144B03B316
:105AA0004FF4C870FFF7D2FA0446D0B1D5F84831A8
:105AB000002780E88800C5F8484138460123C4F82B
:105AC0008871C4F88C71002EE1D0D1E7D4F88C1124
:105AD0000A43C4F88C21DAE705F5A674C5F84841F5
